{
	"data": {
		"bytecode": {
			"linkReferences": {},
			"object": "608060405234801561000f575f5ffd5b50604051611af1380380611af18339818101604052810190610031919061044f565b815f73ffffffffffffffffffffffffffffffffffffffff168173ffffffffffffffffffffffffffffffffffffffff16036100a2575f6040517f1e4fbdf700000000000000000000000000000000000000000000000000000000815260040161009991906104b8565b60405180910390fd5b6100b1816101d360201b60201c565b505f5f90505b81518110156101cb575f73ffffffffffffffffffffffffffffffffffffffff168282815181106100ea576100e96104d1565b5b602002602001015173ffffffffffffffffffffffffffffffffffffffff160361013f576040517fc1ab6dc100000000000000000000000000000000000000000000000000000000815260040160405180910390fd5b600160025f848481518110610157576101566104d1565b5b602002602001015173ffffffffffffffffffffffffffffffffffffffff1673ffffffffffffffffffffffffffffffffffffffff1681526020019081526020015f205f6101000a81548160ff021916908360018111156101b9576101b86104fe565b5b021790555080806001019150506100b7565b50505061052b565b5f5f5f9054906101000a900473ffffffffffffffffffffffffffffffffffffffff169050815f5f6101000a81548173ffffffffffffffffffffffffffffffffffffffff021916908373ffffffffffffffffffffffffffffffffffffffff1602179055508173ffffffffffffffffffffffffffffffffffffffff168173ffffffffffffffffffffffffffffffffffffffff167f8be0079c531659141344cd1fd0a4f28419497f9722a3daafe3b4186f6b6457e060405160405180910390a35050565b5f604051905090565b5f5ffd5b5f5ffd5b5f73ffffffffffffffffffffffffffffffffffffffff82169050919050565b5f6102ce826102a5565b9050919050565b6102de816102c4565b81146102e8575f5ffd5b50565b5f815190506102f9816102d5565b92915050565b5f5ffd5b5f601f19601f8301169050919050565b7f4e487b71000000000000000000000000000000000000000000000000000000005f52604160045260245ffd5b61034982610303565b810181811067ffffffffffffffff8211171561036857610367610313565b5b80604052505050565b5f61037a610294565b90506103868282610340565b919050565b5f67ffffffffffffffff8211156103a5576103a4610313565b5b602082029050602081019050919050565b5f5ffd5b5f6103cc6103c78461038b565b610371565b905080838252602082019050602084028301858111156103ef576103ee6103b6565b5b835b81811015610418578061040488826102eb565b8452602084019350506020810190506103f1565b5050509392505050565b5f82601f830112610436576104356102ff565b5b81516104468482602086016103ba565b91505092915050565b5f5f604083850312156104655761046461029d565b5b5f610472858286016102eb565b925050602083015167ffffffffffffffff811115610493576104926102a1565b5b61049f85828601610422565b9150509250929050565b6104b2816102c4565b82525050565b5f6020820190506104cb5f8301846104a9565b92915050565b7f4e487b71000000000000000000000000000000000000000000000000000000005f52603260045260245ffd5b7f4e487b71000000000000000000000000000000000000000000000000000000005f52602160045260245ffd5b6115b9806105385f395ff3fe60806040526004361061009f575f3560e01c8063715018a611610063578063715018a61461018057806382ad6f35146101965780638da5cb5b146101be578063d9f524af146101e8578063f2fde38b14610210578063f3fef3a314610238576100a0565b80632a37e054146100a25780632d28936b146100ca5780632e1aaf5a146100f2578063352cad4c1461011a5780636c0bd96c14610156576100a0565b5b005b3480156100ad575f5ffd5b506100c860048036038101906100c391906110a0565b610260565b005b3480156100d5575f5ffd5b506100f060048036038101906100eb91906110fe565b6103d0565b005b3480156100fd575f5ffd5b5061011860048036038101906101139190611198565b610814565b005b348015610125575f5ffd5b50610140600480360381019061013b91906110a0565b61093b565b60405161014d9190611249565b60405180910390f35b348015610161575f5ffd5b5061016a610958565b60405161017791906112bd565b60405180910390f35b34801561018b575f5ffd5b5061019461097d565b005b3480156101a1575f5ffd5b506101bc60048036038101906101b791906112d6565b610990565b005b3480156101c9575f5ffd5b506101d2610b7a565b6040516101df9190611335565b60405180910390f35b3480156101f3575f5ffd5b5061020e6004803603810190610209919061134e565b610ba1565b005b34801561021b575f5ffd5b50610236600480360381019061023191906110a0565b610c86565b005b348015610243575f5ffd5b5061025e6004803603810190610259919061134e565b610d0a565b005b610268610ef3565b805f73ffffffffffffffffffffffffffffffffffffffff168173ffffffffffffffffffffffffffffffffffffffff16036102ce576040517fc1ab6dc100000000000000000000000000000000000000000000000000000000815260040160405180910390fd5b5f73ffffffffffffffffffffffffffffffffffffffff1660015f9054906101000a900473ffffffffffffffffffffffffffffffffffffffff1673ffffffffffffffffffffffffffffffffffffffff1614610354576040517fe919633700000000000000000000000000000000000000000000000000000000815260040160405180910390fd5b8160015f6101000a81548173ffffffffffffffffffffffffffffffffffffffff021916908373ffffffffffffffffffffffffffffffffffffffff1602179055507e335c70752896d327602875cbf869c07973985429fbc7c71fece90502d985c582426040516103c492919061139b565b60405180910390a15050565b835f73ffffffffffffffffffffffffffffffffffffffff168173ffffffffffffffffffffffffffffffffffffffff1603610436576040517fc1ab6dc100000000000000000000000000000000000000000000000000000000815260040160405180910390fd5b845f600181111561044a576104496111d6565b5b60025f8373ffffffffffffffffffffffffffffffffffffffff1673ffffffffffffffffffffffffffffffffffffffff1681526020019081526020015f205f9054906101000a900460ff1660018111156104a6576104a56111d6565b5b036104dd576040517f0dd7b61200000000000000000000000000000000000000000000000000000000815260040160405180910390fd5b5f850361052157846040517f3728b83d00000000000000000000000000000000000000000000000000000000815260040161051891906113c2565b60405180910390fd5b848673ffffffffffffffffffffffffffffffffffffffff166370a08231336040518263ffffffff1660e01b815260040161055b9190611335565b602060405180830381865afa158015610576573d5f5f3e3d5ffd5b505050506040513d601f19601f8201168201806040525081019061059a91906113ef565b10156105d2576040517ff4d678b800000000000000000000000000000000000000000000000000000000815260040160405180910390fd5b5f831115610736578260015f9054906101000a900473ffffffffffffffffffffffffffffffffffffffff1673ffffffffffffffffffffffffffffffffffffffff166370a08231336040518263ffffffff1660e01b81526004016106359190611335565b602060405180830381865afa158015610650573d5f5f3e3d5ffd5b505050506040513d601f19601f8201168201806040525081019061067491906113ef565b10156106ac576040517ff4d678b800000000000000000000000000000000000000000000000000000000815260040160405180910390fd5b60015f9054906101000a900473ffffffffffffffffffffffffffffffffffffffff1673ffffffffffffffffffffffffffffffffffffffff166379cc679033856040518363ffffffff1660e01b815260040161070892919061139b565b5f604051808303815f87803b15801561071f575f5ffd5b505af1158015610731573d5f5f3e3d5ffd5b505050505b8573ffffffffffffffffffffffffffffffffffffffff166323b872dd3330886040518463ffffffff1660e01b81526004016107739392919061141a565b6020604051808303815f875af115801561078f573d5f5f3e3d5ffd5b505050506040513d601f19601f820116820180604052508101906107b39190611484565b50863373ffffffffffffffffffffffffffffffffffffffff167f482485e1484a4db40fd45f3f0f17d564d492684468622e64643a9fb7bb8dd03188888888426040516108039594939291906114af565b60405180910390a350505050505050565b61081c610ef3565b815f73ffffffffffffffffffffffffffffffffffffffff168173ffffffffffffffffffffffffffffffffffffffff1603610882576040517fc1ab6dc100000000000000000000000000000000000000000000000000000000815260040160405180910390fd5b8160025f8573ffffffffffffffffffffffffffffffffffffffff1673ffffffffffffffffffffffffffffffffffffffff1681526020019081526020015f205f6101000a81548160ff021916908360018111156108e1576108e06111d6565b5b02179055508273ffffffffffffffffffffffffffffffffffffffff167fae3e4d0a9b0f0735e05e45097694b381450f1b79257610deec59282d49d539db834260405161092e929190611500565b60405180910390a2505050565b6002602052805f5260405f205f915054906101000a900460ff1681565b60015f9054906101000a900473ffffffffffffffffffffffffffffffffffffffff1681565b610985610ef3565b61098e5f610f7a565b565b610998610ef3565b825f73ffffffffffffffffffffffffffffffffffffffff168173ffffffffffffffffffffffffffffffffffffffff16036109fe576040517fc1ab6dc100000000000000000000000000000000000000000000000000000000815260040160405180910390fd5b835f6001811115610a1257610a116111d6565b5b60025f8373ffffffffffffffffffffffffffffffffffffffff1673ffffffffffffffffffffffffffffffffffffffff1681526020019081526020015f205f9054906101000a900460ff166001811115610a6e57610a6d6111d6565b5b03610aa5576040517f0dd7b61200000000000000000000000000000000000000000000000000000000815260040160405180910390fd5b8473ffffffffffffffffffffffffffffffffffffffff1663a9059cbb85856040518363ffffffff1660e01b8152600401610ae092919061139b565b6020604051808303815f875af1158015610afc573d5f5f3e3d5ffd5b505050506040513d601f19601f82011682018060405250810190610b209190611484565b508373ffffffffffffffffffffffffffffffffffffffff167f88808afc48888c0e3ec9c545474e31ce16f177be8d0c8ba3922274893615750e868542604051610b6b93929190611527565b60405180910390a25050505050565b5f5f5f9054906101000a900473ffffffffffffffffffffffffffffffffffffffff16905090565b610ba9610ef3565b60015f9054906101000a900473ffffffffffffffffffffffffffffffffffffffff1673ffffffffffffffffffffffffffffffffffffffff166340c10f1983836040518363ffffffff1660e01b8152600401610c0592919061139b565b5f604051808303815f87803b158015610c1c575f5ffd5b505af1158015610c2e573d5f5f3e3d5ffd5b505050508173ffffffffffffffffffffffffffffffffffffffff167f2379b5431252245baa89e228e37df9a699ac9c85df8f34f82ab2ed64e44b64cf8242604051610c7a92919061155c565b60405180910390a25050565b610c8e610ef3565b5f73ffffffffffffffffffffffffffffffffffffffff168173ffffffffffffffffffffffffffffffffffffffff1603610cfe575f6040517f1e4fbdf7000000000000000000000000000000000000000000000000000000008152600401610cf59190611335565b60405180910390fd5b610d0781610f7a565b50565b610d12610ef3565b815f73ffffffffffffffffffffffffffffffffffffffff168173ffffffffffffffffffffffffffffffffffffffff1603610d78576040517fc1ab6dc100000000000000000000000000000000000000000000000000000000815260040160405180910390fd5b825f6001811115610d8c57610d8b6111d6565b5b60025f8373ffffffffffffffffffffffffffffffffffffffff1673ffffffffffffffffffffffffffffffffffffffff1681526020019081526020015f205f9054906101000a900460ff166001811115610de857610de76111d6565b5b03610e1f576040517f0dd7b61200000000000000000000000000000000000000000000000000000000815260040160405180910390fd5b8373ffffffffffffffffffffffffffffffffffffffff1663a9059cbb33856040518363ffffffff1660e01b8152600401610e5a92919061139b565b6020604051808303815f875af1158015610e76573d5f5f3e3d5ffd5b505050506040513d601f19601f82011682018060405250810190610e9a9190611484565b503373ffffffffffffffffffffffffffffffffffffffff167f91fb9d98b786c57d74c099ccd2beca1739e9f6a81fb49001ca465c4b7591bbe2858542604051610ee593929190611527565b60405180910390a250505050565b610efb61103b565b73ffffffffffffffffffffffffffffffffffffffff16610f19610b7a565b73ffffffffffffffffffffffffffffffffffffffff1614610f7857610f3c61103b565b6040517f118cdaa7000000000000000000000000000000000000000000000000000000008152600401610f6f9190611335565b60405180910390fd5b565b5f5f5f9054906101000a900473ffffffffffffffffffffffffffffffffffffffff169050815f5f6101000a81548173ffffffffffffffffffffffffffffffffffffffff021916908373ffffffffffffffffffffffffffffffffffffffff1602179055508173ffffffffffffffffffffffffffffffffffffffff168173ffffffffffffffffffffffffffffffffffffffff167f8be0079c531659141344cd1fd0a4f28419497f9722a3daafe3b4186f6b6457e060405160405180910390a35050565b5f33905090565b5f5ffd5b5f73ffffffffffffffffffffffffffffffffffffffff82169050919050565b5f61106f82611046565b9050919050565b61107f81611065565b8114611089575f5ffd5b50565b5f8135905061109a81611076565b92915050565b5f602082840312156110b5576110b4611042565b5b5f6110c28482850161108c565b91505092915050565b5f819050919050565b6110dd816110cb565b81146110e7575f5ffd5b50565b5f813590506110f8816110d4565b92915050565b5f5f5f5f5f60a0868803121561111757611116611042565b5b5f611124888289016110ea565b95505060206111358882890161108c565b9450506040611146888289016110ea565b9350506060611157888289016110ea565b9250506080611168888289016110ea565b9150509295509295909350565b60028110611181575f5ffd5b50565b5f8135905061119281611175565b92915050565b5f5f604083850312156111ae576111ad611042565b5b5f6111bb8582860161108c565b92505060206111cc85828601611184565b9150509250929050565b7f4e487b71000000000000000000000000000000000000000000000000000000005f52602160045260245ffd5b60028110611214576112136111d6565b5b50565b5f81905061122482611203565b919050565b5f61123382611217565b9050919050565b61124381611229565b82525050565b5f60208201905061125c5f83018461123a565b92915050565b5f819050919050565b5f61128561128061127b84611046565b611262565b611046565b9050919050565b5f6112968261126b565b9050919050565b5f6112a78261128c565b9050919050565b6112b78161129d565b82525050565b5f6020820190506112d05f8301846112ae565b92915050565b5f5f5f606084860312156112ed576112ec611042565b5b5f6112fa8682870161108c565b935050602061130b8682870161108c565b925050604061131c868287016110ea565b9150509250925092565b61132f81611065565b82525050565b5f6020820190506113485f830184611326565b92915050565b5f5f6040838503121561136457611363611042565b5b5f6113718582860161108c565b9250506020611382858286016110ea565b9150509250929050565b611395816110cb565b82525050565b5f6040820190506113ae5f830185611326565b6113bb602083018461138c565b9392505050565b5f6020820190506113d55f83018461138c565b92915050565b5f815190506113e9816110d4565b92915050565b5f6020828403121561140457611403611042565b5b5f611411848285016113db565b91505092915050565b5f60608201905061142d5f830186611326565b61143a6020830185611326565b611447604083018461138c565b949350505050565b5f8115159050919050565b6114638161144f565b811461146d575f5ffd5b50565b5f8151905061147e8161145a565b92915050565b5f6020828403121561149957611498611042565b5b5f6114a684828501611470565b91505092915050565b5f60a0820190506114c25f830188611326565b6114cf602083018761138c565b6114dc604083018661138c565b6114e9606083018561138c565b6114f6608083018461138c565b9695505050505050565b5f6040820190506115135f83018561123a565b611520602083018461138c565b9392505050565b5f60608201905061153a5f830186611326565b611547602083018561138c565b611554604083018461138c565b949350505050565b5f60408201905061156f5f83018561138c565b61157c602083018461138c565b939250505056fea2646970667358221220d0d1bdb1b47c431a080b6a1311d5e666e22e8f5f4b0e74abbd1a71f8bddfcd9c64736f6c634300081e0033",
			"opcodes": "PUSH1 0x80 PUSH1 0x40 MSTORE CALLVALUE DUP1 ISZERO PUSH2 0xF JUMPI PUSH0 PUSH0 REVERT JUMPDEST POP PUSH1 0x40 MLOAD PUSH2 0x1AF1 CODESIZE SUB DUP1 PUSH2 0x1AF1 DUP4 CODECOPY DUP2 DUP2 ADD PUSH1 0x40 MSTORE DUP2 ADD SWAP1 PUSH2 0x31 SWAP2 SWAP1 PUSH2 0x44F JUMP JUMPDEST DUP2 PUSH0 PUSH20 0xFFFFFFFFFFFFFFFFFFFFFFFFFFFFFFFFFFFFFFFF AND DUP2 PUSH20 0xFFFFFFFFFFFFFFFFFFFFFFFFFFFFFFFFFFFFFFFF AND SUB PUSH2 0xA2 JUMPI PUSH0 PUSH1 0x40 MLOAD PUSH32 0x1E4FBDF700000000000000000000000000000000000000000000000000000000 DUP2 MSTORE PUSH1 0x4 ADD PUSH2 0x99 SWAP2 SWAP1 PUSH2 0x4B8 JUMP JUMPDEST PUSH1 0x40 MLOAD DUP1 SWAP2 SUB SWAP1 REVERT JUMPDEST PUSH2 0xB1 DUP2 PUSH2 0x1D3 PUSH1 0x20 SHL PUSH1 0x20 SHR JUMP JUMPDEST POP PUSH0 PUSH0 SWAP1 POP JUMPDEST DUP2 MLOAD DUP2 LT ISZERO PUSH2 0x1CB JUMPI PUSH0 PUSH20 0xFFFFFFFFFFFFFFFFFFFFFFFFFFFFFFFFFFFFFFFF AND DUP3 DUP3 DUP2 MLOAD DUP2 LT PUSH2 0xEA JUMPI PUSH2 0xE9 PUSH2 0x4D1 JUMP JUMPDEST JUMPDEST PUSH1 0x20 MUL PUSH1 0x20 ADD ADD MLOAD PUSH20 0xFFFFFFFFFFFFFFFFFFFFFFFFFFFFFFFFFFFFFFFF AND SUB PUSH2 0x13F JUMPI PUSH1 0x40 MLOAD PUSH32 0xC1AB6DC100000000000000000000000000000000000000000000000000000000 DUP2 MSTORE PUSH1 0x4 ADD PUSH1 0x40 MLOAD DUP1 SWAP2 SUB SWAP1 REVERT JUMPDEST PUSH1 0x1 PUSH1 0x2 PUSH0 DUP5 DUP5 DUP2 MLOAD DUP2 LT PUSH2 0x157 JUMPI PUSH2 0x156 PUSH2 0x4D1 JUMP JUMPDEST JUMPDEST PUSH1 0x20 MUL PUSH1 0x20 ADD ADD MLOAD PUSH20 0xFFFFFFFFFFFFFFFFFFFFFFFFFFFFFFFFFFFFFFFF AND PUSH20 0xFFFFFFFFFFFFFFFFFFFFFFFFFFFFFFFFFFFFFFFF AND DUP2 MSTORE PUSH1 0x20 ADD SWAP1 DUP2 MSTORE PUSH1 0x20 ADD PUSH0 KECCAK256 PUSH0 PUSH2 0x100 EXP DUP2 SLOAD DUP2 PUSH1 0xFF MUL NOT AND SWAP1 DUP4 PUSH1 0x1 DUP2 GT ISZERO PUSH2 0x1B9 JUMPI PUSH2 0x1B8 PUSH2 0x4FE JUMP JUMPDEST JUMPDEST MUL OR SWAP1 SSTORE POP DUP1 DUP1 PUSH1 0x1 ADD SWAP2 POP POP PUSH2 0xB7 JUMP JUMPDEST POP POP POP PUSH2 0x52B JUMP JUMPDEST PUSH0 PUSH0 PUSH0 SWAP1 SLOAD SWAP1 PUSH2 0x100 EXP SWAP1 DIV PUSH20 0xFFFFFFFFFFFFFFFFFFFFFFFFFFFFFFFFFFFFFFFF AND SWAP1 POP DUP2 PUSH0 PUSH0 PUSH2 0x100 EXP DUP2 SLOAD DUP2 PUSH20 0xFFFFFFFFFFFFFFFFFFFFFFFFFFFFFFFFFFFFFFFF MUL NOT AND SWAP1 DUP4 PUSH20 0xFFFFFFFFFFFFFFFFFFFFFFFFFFFFFFFFFFFFFFFF AND MUL OR SWAP1 SSTORE POP DUP2 PUSH20 0xFFFFFFFFFFFFFFFFFFFFFFFFFFFFFFFFFFFFFFFF AND DUP2 PUSH20 0xFFFFFFFFFFFFFFFFFFFFFFFFFFFFFFFFFFFFFFFF AND PUSH32 0x8BE0079C531659141344CD1FD0A4F28419497F9722A3DAAFE3B4186F6B6457E0 PUSH1 0x40 MLOAD PUSH1 0x40 MLOAD DUP1 SWAP2 SUB SWAP1 LOG3 POP POP JUMP JUMPDEST PUSH0 PUSH1 0x40 MLOAD SWAP1 POP SWAP1 JUMP JUMPDEST PUSH0 PUSH0 REVERT JUMPDEST PUSH0 PUSH0 REVERT JUMPDEST PUSH0 PUSH20 0xFFFFFFFFFFFFFFFFFFFFFFFFFFFFFFFFFFFFFFFF DUP3 AND SWAP1 POP SWAP2 SWAP1 POP JUMP JUMPDEST PUSH0 PUSH2 0x2CE DUP3 PUSH2 0x2A5 JUMP JUMPDEST SWAP1 POP SWAP2 SWAP1 POP JUMP JUMPDEST PUSH2 0x2DE DUP2 PUSH2 0x2C4 JUMP JUMPDEST DUP2 EQ PUSH2 0x2E8 JUMPI PUSH0 PUSH0 REVERT JUMPDEST POP JUMP JUMPDEST PUSH0 DUP2 MLOAD SWAP1 POP PUSH2 0x2F9 DUP2 PUSH2 0x2D5 JUMP JUMPDEST SWAP3 SWAP2 POP POP JUMP JUMPDEST PUSH0 PUSH0 REVERT JUMPDEST PUSH0 PUSH1 0x1F NOT PUSH1 0x1F DUP4 ADD AND SWAP1 POP SWAP2 SWAP1 POP JUMP JUMPDEST PUSH32 0x4E487B7100000000000000000000000000000000000000000000000000000000 PUSH0 MSTORE PUSH1 0x41 PUSH1 0x4 MSTORE PUSH1 0x24 PUSH0 REVERT JUMPDEST PUSH2 0x349 DUP3 PUSH2 0x303 JUMP JUMPDEST DUP2 ADD DUP2 DUP2 LT PUSH8 0xFFFFFFFFFFFFFFFF DUP3 GT OR ISZERO PUSH2 0x368 JUMPI PUSH2 0x367 PUSH2 0x313 JUMP JUMPDEST JUMPDEST DUP1 PUSH1 0x40 MSTORE POP POP POP JUMP JUMPDEST PUSH0 PUSH2 0x37A PUSH2 0x294 JUMP JUMPDEST SWAP1 POP PUSH2 0x386 DUP3 DUP3 PUSH2 0x340 JUMP JUMPDEST SWAP2 SWAP1 POP JUMP JUMPDEST PUSH0 PUSH8 0xFFFFFFFFFFFFFFFF DUP3 GT ISZERO PUSH2 0x3A5 JUMPI PUSH2 0x3A4 PUSH2 0x313 JUMP JUMPDEST JUMPDEST PUSH1 0x20 DUP3 MUL SWAP1 POP PUSH1 0x20 DUP2 ADD SWAP1 POP SWAP2 SWAP1 POP JUMP JUMPDEST PUSH0 PUSH0 REVERT JUMPDEST PUSH0 PUSH2 0x3CC PUSH2 0x3C7 DUP5 PUSH2 0x38B JUMP JUMPDEST PUSH2 0x371 JUMP JUMPDEST SWAP1 POP DUP1 DUP4 DUP3 MSTORE PUSH1 0x20 DUP3 ADD SWAP1 POP PUSH1 0x20 DUP5 MUL DUP4 ADD DUP6 DUP2 GT ISZERO PUSH2 0x3EF JUMPI PUSH2 0x3EE PUSH2 0x3B6 JUMP JUMPDEST JUMPDEST DUP4 JUMPDEST DUP2 DUP2 LT ISZERO PUSH2 0x418 JUMPI DUP1 PUSH2 0x404 DUP9 DUP3 PUSH2 0x2EB JUMP JUMPDEST DUP5 MSTORE PUSH1 0x20 DUP5 ADD SWAP4 POP POP PUSH1 0x20 DUP2 ADD SWAP1 POP PUSH2 0x3F1 JUMP JUMPDEST POP POP POP SWAP4 SWAP3 POP POP POP JUMP JUMPDEST PUSH0 DUP3 PUSH1 0x1F DUP4 ADD SLT PUSH2 0x436 JUMPI PUSH2 0x435 PUSH2 0x2FF JUMP JUMPDEST JUMPDEST DUP2 MLOAD PUSH2 0x446 DUP5 DUP3 PUSH1 0x20 DUP7 ADD PUSH2 0x3BA JUMP JUMPDEST SWAP2 POP POP SWAP3 SWAP2 POP POP JUMP JUMPDEST PUSH0 PUSH0 PUSH1 0x40 DUP4 DUP6 SUB SLT ISZERO PUSH2 0x465 JUMPI PUSH2 0x464 PUSH2 0x29D JUMP JUMPDEST JUMPDEST PUSH0 PUSH2 0x472 DUP6 DUP3 DUP7 ADD PUSH2 0x2EB JUMP JUMPDEST SWAP3 POP POP PUSH1 0x20 DUP4 ADD MLOAD PUSH8 0xFFFFFFFFFFFFFFFF DUP2 GT ISZERO PUSH2 0x493 JUMPI PUSH2 0x492 PUSH2 0x2A1 JUMP JUMPDEST JUMPDEST PUSH2 0x49F DUP6 DUP3 DUP7 ADD PUSH2 0x422 JUMP JUMPDEST SWAP2 POP POP SWAP3 POP SWAP3 SWAP1 POP JUMP JUMPDEST PUSH2 0x4B2 DUP2 PUSH2 0x2C4 JUMP JUMPDEST DUP3 MSTORE POP POP JUMP JUMPDEST PUSH0 PUSH1 0x20 DUP3 ADD SWAP1 POP PUSH2 0x4CB PUSH0 DUP4 ADD DUP5 PUSH2 0x4A9 JUMP JUMPDEST SWAP3 SWAP2 POP POP JUMP JUMPDEST PUSH32 0x4E487B7100000000000000000000000000000000000000000000000000000000 PUSH0 MSTORE PUSH1 0x32 PUSH1 0x4 MSTORE PUSH1 0x24 PUSH0 REVERT JUMPDEST PUSH32 0x4E487B7100000000000000000000000000000000000000000000000000000000 PUSH0 MSTORE PUSH1 0x21 PUSH1 0x4 MSTORE PUSH1 0x24 PUSH0 REVERT JUMPDEST PUSH2 0x15B9 DUP1 PUSH2 0x538 PUSH0 CODECOPY PUSH0 RETURN INVALID PUSH1 0x80 PUSH1 0x40 MSTORE PUSH1 0x4 CALLDATASIZE LT PUSH2 0x9F JUMPI PUSH0 CALLDATALOAD PUSH1 0xE0 SHR DUP1 PUSH4 0x715018A6 GT PUSH2 0x63 JUMPI DUP1 PUSH4 0x715018A6 EQ PUSH2 0x180 JUMPI DUP1 PUSH4 0x82AD6F35 EQ PUSH2 0x196 JUMPI DUP1 PUSH4 0x8DA5CB5B EQ PUSH2 0x1BE JUMPI DUP1 PUSH4 0xD9F524AF EQ PUSH2 0x1E8 JUMPI DUP1 PUSH4 0xF2FDE38B EQ PUSH2 0x210 JUMPI DUP1 PUSH4 0xF3FEF3A3 EQ PUSH2 0x238 JUMPI PUSH2 0xA0 JUMP JUMPDEST DUP1 PUSH4 0x2A37E054 EQ PUSH2 0xA2 JUMPI DUP1 PUSH4 0x2D28936B EQ PUSH2 0xCA JUMPI DUP1 PUSH4 0x2E1AAF5A EQ PUSH2 0xF2 JUMPI DUP1 PUSH4 0x352CAD4C EQ PUSH2 0x11A JUMPI DUP1 PUSH4 0x6C0BD96C EQ PUSH2 0x156 JUMPI PUSH2 0xA0 JUMP JUMPDEST JUMPDEST STOP JUMPDEST CALLVALUE DUP1 ISZERO PUSH2 0xAD JUMPI PUSH0 PUSH0 REVERT JUMPDEST POP PUSH2 0xC8 PUSH1 0x4 DUP1 CALLDATASIZE SUB DUP2 ADD SWAP1 PUSH2 0xC3 SWAP2 SWAP1 PUSH2 0x10A0 JUMP JUMPDEST PUSH2 0x260 JUMP JUMPDEST STOP JUMPDEST CALLVALUE DUP1 ISZERO PUSH2 0xD5 JUMPI PUSH0 PUSH0 REVERT JUMPDEST POP PUSH2 0xF0 PUSH1 0x4 DUP1 CALLDATASIZE SUB DUP2 ADD SWAP1 PUSH2 0xEB SWAP2 SWAP1 PUSH2 0x10FE JUMP JUMPDEST PUSH2 0x3D0 JUMP JUMPDEST STOP JUMPDEST CALLVALUE DUP1 ISZERO PUSH2 0xFD JUMPI PUSH0 PUSH0 REVERT JUMPDEST POP PUSH2 0x118 PUSH1 0x4 DUP1 CALLDATASIZE SUB DUP2 ADD SWAP1 PUSH2 0x113 SWAP2 SWAP1 PUSH2 0x1198 JUMP JUMPDEST PUSH2 0x814 JUMP JUMPDEST STOP JUMPDEST CALLVALUE DUP1 ISZERO PUSH2 0x125 JUMPI PUSH0 PUSH0 REVERT JUMPDEST POP PUSH2 0x140 PUSH1 0x4 DUP1 CALLDATASIZE SUB DUP2 ADD SWAP1 PUSH2 0x13B SWAP2 SWAP1 PUSH2 0x10A0 JUMP JUMPDEST PUSH2 0x93B JUMP JUMPDEST PUSH1 0x40 MLOAD PUSH2 0x14D SWAP2 SWAP1 PUSH2 0x1249 JUMP JUMPDEST PUSH1 0x40 MLOAD DUP1 SWAP2 SUB SWAP1 RETURN JUMPDEST CALLVALUE DUP1 ISZERO PUSH2 0x161 JUMPI PUSH0 PUSH0 REVERT JUMPDEST POP PUSH2 0x16A PUSH2 0x958 JUMP JUMPDEST PUSH1 0x40 MLOAD PUSH2 0x177 SWAP2 SWAP1 PUSH2 0x12BD JUMP JUMPDEST PUSH1 0x40 MLOAD DUP1 SWAP2 SUB SWAP1 RETURN JUMPDEST CALLVALUE DUP1 ISZERO PUSH2 0x18B JUMPI PUSH0 PUSH0 REVERT JUMPDEST POP PUSH2 0x194 PUSH2 0x97D JUMP JUMPDEST STOP JUMPDEST CALLVALUE DUP1 ISZERO PUSH2 0x1A1 JUMPI PUSH0 PUSH0 REVERT JUMPDEST POP PUSH2 0x1BC PUSH1 0x4 DUP1 CALLDATASIZE SUB DUP2 ADD SWAP1 PUSH2 0x1B7 SWAP2 SWAP1 PUSH2 0x12D6 JUMP JUMPDEST PUSH2 0x990 JUMP JUMPDEST STOP JUMPDEST CALLVALUE DUP1 ISZERO PUSH2 0x1C9 JUMPI PUSH0 PUSH0 REVERT JUMPDEST POP PUSH2 0x1D2 PUSH2 0xB7A JUMP JUMPDEST PUSH1 0x40 MLOAD PUSH2 0x1DF SWAP2 SWAP1 PUSH2 0x1335 JUMP JUMPDEST PUSH1 0x40 MLOAD DUP1 SWAP2 SUB SWAP1 RETURN JUMPDEST CALLVALUE DUP1 ISZERO PUSH2 0x1F3 JUMPI PUSH0 PUSH0 REVERT JUMPDEST POP PUSH2 0x20E PUSH1 0x4 DUP1 CALLDATASIZE SUB DUP2 ADD SWAP1 PUSH2 0x209 SWAP2 SWAP1 PUSH2 0x134E JUMP JUMPDEST PUSH2 0xBA1 JUMP JUMPDEST STOP JUMPDEST CALLVALUE DUP1 ISZERO PUSH2 0x21B JUMPI PUSH0 PUSH0 REVERT JUMPDEST POP PUSH2 0x236 PUSH1 0x4 DUP1 CALLDATASIZE SUB DUP2 ADD SWAP1 PUSH2 0x231 SWAP2 SWAP1 PUSH2 0x10A0 JUMP JUMPDEST PUSH2 0xC86 JUMP JUMPDEST STOP JUMPDEST CALLVALUE DUP1 ISZERO PUSH2 0x243 JUMPI PUSH0 PUSH0 REVERT JUMPDEST POP PUSH2 0x25E PUSH1 0x4 DUP1 CALLDATASIZE SUB DUP2 ADD SWAP1 PUSH2 0x259 SWAP2 SWAP1 PUSH2 0x134E JUMP JUMPDEST PUSH2 0xD0A JUMP JUMPDEST STOP JUMPDEST PUSH2 0x268 PUSH2 0xEF3 JUMP JUMPDEST DUP1 PUSH0 PUSH20 0xFFFFFFFFFFFFFFFFFFFFFFFFFFFFFFFFFFFFFFFF AND DUP2 PUSH20 0xFFFFFFFFFFFFFFFFFFFFFFFFFFFFFFFFFFFFFFFF AND SUB PUSH2 0x2CE JUMPI PUSH1 0x40 MLOAD PUSH32 0xC1AB6DC100000000000000000000000000000000000000000000000000000000 DUP2 MSTORE PUSH1 0x4 ADD PUSH1 0x40 MLOAD DUP1 SWAP2 SUB SWAP1 REVERT JUMPDEST PUSH0 PUSH20 0xFFFFFFFFFFFFFFFFFFFFFFFFFFFFFFFFFFFFFFFF AND PUSH1 0x1 PUSH0 SWAP1 SLOAD SWAP1 PUSH2 0x100 EXP SWAP1 DIV PUSH20 0xFFFFFFFFFFFFFFFFFFFFFFFFFFFFFFFFFFFFFFFF AND PUSH20 0xFFFFFFFFFFFFFFFFFFFFFFFFFFFFFFFFFFFFFFFF AND EQ PUSH2 0x354 JUMPI PUSH1 0x40 MLOAD PUSH32 0xE919633700000000000000000000000000000000000000000000000000000000 DUP2 MSTORE PUSH1 0x4 ADD PUSH1 0x40 MLOAD DUP1 SWAP2 SUB SWAP1 REVERT JUMPDEST DUP2 PUSH1 0x1 PUSH0 PUSH2 0x100 EXP DUP2 SLOAD DUP2 PUSH20 0xFFFFFFFFFFFFFFFFFFFFFFFFFFFFFFFFFFFFFFFF MUL NOT AND SWAP1 DUP4 PUSH20 0xFFFFFFFFFFFFFFFFFFFFFFFFFFFFFFFFFFFFFFFF AND MUL OR SWAP1 SSTORE POP PUSH31 0x335C70752896D327602875CBF869C07973985429FBC7C71FECE90502D985C5 DUP3 TIMESTAMP PUSH1 0x40 MLOAD PUSH2 0x3C4 SWAP3 SWAP2 SWAP1 PUSH2 0x139B JUMP JUMPDEST PUSH1 0x40 MLOAD DUP1 SWAP2 SUB SWAP1 LOG1 POP POP JUMP JUMPDEST DUP4 PUSH0 PUSH20 0xFFFFFFFFFFFFFFFFFFFFFFFFFFFFFFFFFFFFFFFF AND DUP2 PUSH20 0xFFFFFFFFFFFFFFFFFFFFFFFFFFFFFFFFFFFFFFFF AND SUB PUSH2 0x436 JUMPI PUSH1 0x40 MLOAD PUSH32 0xC1AB6DC100000000000000000000000000000000000000000000000000000000 DUP2 MSTORE PUSH1 0x4 ADD PUSH1 0x40 MLOAD DUP1 SWAP2 SUB SWAP1 REVERT JUMPDEST DUP5 PUSH0 PUSH1 0x1 DUP2 GT ISZERO PUSH2 0x44A JUMPI PUSH2 0x449 PUSH2 0x11D6 JUMP JUMPDEST JUMPDEST PUSH1 0x2 PUSH0 DUP4 PUSH20 0xFFFFFFFFFFFFFFFFFFFFFFFFFFFFFFFFFFFFFFFF AND PUSH20 0xFFFFFFFFFFFFFFFFFFFFFFFFFFFFFFFFFFFFFFFF AND DUP2 MSTORE PUSH1 0x20 ADD SWAP1 DUP2 MSTORE PUSH1 0x20 ADD PUSH0 KECCAK256 PUSH0 SWAP1 SLOAD SWAP1 PUSH2 0x100 EXP SWAP1 DIV PUSH1 0xFF AND PUSH1 0x1 DUP2 GT ISZERO PUSH2 0x4A6 JUMPI PUSH2 0x4A5 PUSH2 0x11D6 JUMP JUMPDEST JUMPDEST SUB PUSH2 0x4DD JUMPI PUSH1 0x40 MLOAD PUSH32 0xDD7B61200000000000000000000000000000000000000000000000000000000 DUP2 MSTORE PUSH1 0x4 ADD PUSH1 0x40 MLOAD DUP1 SWAP2 SUB SWAP1 REVERT JUMPDEST PUSH0 DUP6 SUB PUSH2 0x521 JUMPI DUP5 PUSH1 0x40 MLOAD PUSH32 0x3728B83D00000000000000000000000000000000000000000000000000000000 DUP2 MSTORE PUSH1 0x4 ADD PUSH2 0x518 SWAP2 SWAP1 PUSH2 0x13C2 JUMP JUMPDEST PUSH1 0x40 MLOAD DUP1 SWAP2 SUB SWAP1 REVERT JUMPDEST DUP5 DUP7 PUSH20 0xFFFFFFFFFFFFFFFFFFFFFFFFFFFFFFFFFFFFFFFF AND PUSH4 0x70A08231 CALLER PUSH1 0x40 MLOAD DUP3 PUSH4 0xFFFFFFFF AND PUSH1 0xE0 SHL DUP2 MSTORE PUSH1 0x4 ADD PUSH2 0x55B SWAP2 SWAP1 PUSH2 0x1335 JUMP JUMPDEST PUSH1 0x20 PUSH1 0x40 MLOAD DUP1 DUP4 SUB DUP2 DUP7 GAS STATICCALL ISZERO DUP1 ISZERO PUSH2 0x576 JUMPI RETURNDATASIZE PUSH0 PUSH0 RETURNDATACOPY RETURNDATASIZE PUSH0 REVERT JUMPDEST POP POP POP POP PUSH1 0x40 MLOAD RETURNDATASIZE PUSH1 0x1F NOT PUSH1 0x1F DUP3 ADD AND DUP3 ADD DUP1 PUSH1 0x40 MSTORE POP DUP2 ADD SWAP1 PUSH2 0x59A SWAP2 SWAP1 PUSH2 0x13EF JUMP JUMPDEST LT ISZERO PUSH2 0x5D2 JUMPI PUSH1 0x40 MLOAD PUSH32 0xF4D678B800000000000000000000000000000000000000000000000000000000 DUP2 MSTORE PUSH1 0x4 ADD PUSH1 0x40 MLOAD DUP1 SWAP2 SUB SWAP1 REVERT JUMPDEST PUSH0 DUP4 GT ISZERO PUSH2 0x736 JUMPI DUP3 PUSH1 0x1 PUSH0 SWAP1 SLOAD SWAP1 PUSH2 0x100 EXP SWAP1 DIV PUSH20 0xFFFFFFFFFFFFFFFFFFFFFFFFFFFFFFFFFFFFFFFF AND PUSH20 0xFFFFFFFFFFFFFFFFFFFFFFFFFFFFFFFFFFFFFFFF AND PUSH4 0x70A08231 CALLER PUSH1 0x40 MLOAD DUP3 PUSH4 0xFFFFFFFF AND PUSH1 0xE0 SHL DUP2 MSTORE PUSH1 0x4 ADD PUSH2 0x635 SWAP2 SWAP1 PUSH2 0x1335 JUMP JUMPDEST PUSH1 0x20 PUSH1 0x40 MLOAD DUP1 DUP4 SUB DUP2 DUP7 GAS STATICCALL ISZERO DUP1 ISZERO PUSH2 0x650 JUMPI RETURNDATASIZE PUSH0 PUSH0 RETURNDATACOPY RETURNDATASIZE PUSH0 REVERT JUMPDEST POP POP POP POP PUSH1 0x40 MLOAD RETURNDATASIZE PUSH1 0x1F NOT PUSH1 0x1F DUP3 ADD AND DUP3 ADD DUP1 PUSH1 0x40 MSTORE POP DUP2 ADD SWAP1 PUSH2 0x674 SWAP2 SWAP1 PUSH2 0x13EF JUMP JUMPDEST LT ISZERO PUSH2 0x6AC JUMPI PUSH1 0x40 MLOAD PUSH32 0xF4D678B800000000000000000000000000000000000000000000000000000000 DUP2 MSTORE PUSH1 0x4 ADD PUSH1 0x40 MLOAD DUP1 SWAP2 SUB SWAP1 REVERT JUMPDEST PUSH1 0x1 PUSH0 SWAP1 SLOAD SWAP1 PUSH2 0x100 EXP SWAP1 DIV PUSH20 0xFFFFFFFFFFFFFFFFFFFFFFFFFFFFFFFFFFFFFFFF AND PUSH20 0xFFFFFFFFFFFFFFFFFFFFFFFFFFFFFFFFFFFFFFFF AND PUSH4 0x79CC6790 CALLER DUP6 PUSH1 0x40 MLOAD DUP4 PUSH4 0xFFFFFFFF AND PUSH1 0xE0 SHL DUP2 MSTORE PUSH1 0x4 ADD PUSH2 0x708 SWAP3 SWAP2 SWAP1 PUSH2 0x139B JUMP JUMPDEST PUSH0 PUSH1 0x40 MLOAD DUP1 DUP4 SUB DUP2 PUSH0 DUP8 DUP1 EXTCODESIZE ISZERO DUP1 ISZERO PUSH2 0x71F JUMPI PUSH0 PUSH0 REVERT JUMPDEST POP GAS CALL ISZERO DUP1 ISZERO PUSH2 0x731 JUMPI RETURNDATASIZE PUSH0 PUSH0 RETURNDATACOPY RETURNDATASIZE PUSH0 REVERT JUMPDEST POP POP POP POP JUMPDEST DUP6 PUSH20 0xFFFFFFFFFFFFFFFFFFFFFFFFFFFFFFFFFFFFFFFF AND PUSH4 0x23B872DD CALLER ADDRESS DUP9 PUSH1 0x40 MLOAD DUP5 PUSH4 0xFFFFFFFF AND PUSH1 0xE0 SHL DUP2 MSTORE PUSH1 0x4 ADD PUSH2 0x773 SWAP4 SWAP3 SWAP2 SWAP1 PUSH2 0x141A JUMP JUMPDEST PUSH1 0x20 PUSH1 0x40 MLOAD DUP1 DUP4 SUB DUP2 PUSH0 DUP8 GAS CALL ISZERO DUP1 ISZERO PUSH2 0x78F JUMPI RETURNDATASIZE PUSH0 PUSH0 RETURNDATACOPY RETURNDATASIZE PUSH0 REVERT JUMPDEST POP POP POP POP PUSH1 0x40 MLOAD RETURNDATASIZE PUSH1 0x1F NOT PUSH1 0x1F DUP3 ADD AND DUP3 ADD DUP1 PUSH1 0x40 MSTORE POP DUP2 ADD SWAP1 PUSH2 0x7B3 SWAP2 SWAP1 PUSH2 0x1484 JUMP JUMPDEST POP DUP7 CALLER PUSH20 0xFFFFFFFFFFFFFFFFFFFFFFFFFFFFFFFFFFFFFFFF AND PUSH32 0x482485E1484A4DB40FD45F3F0F17D564D492684468622E64643A9FB7BB8DD031 DUP9 DUP9 DUP9 DUP9 TIMESTAMP PUSH1 0x40 MLOAD PUSH2 0x803 SWAP6 SWAP5 SWAP4 SWAP3 SWAP2 SWAP1 PUSH2 0x14AF JUMP JUMPDEST PUSH1 0x40 MLOAD DUP1 SWAP2 SUB SWAP1 LOG3 POP POP POP POP POP POP POP JUMP JUMPDEST PUSH2 0x81C PUSH2 0xEF3 JUMP JUMPDEST DUP2 PUSH0 PUSH20 0xFFFFFFFFFFFFFFFFFFFFFFFFFFFFFFFFFFFFFFFF AND DUP2 PUSH20 0xFFFFFFFFFFFFFFFFFFFFFFFFFFFFFFFFFFFFFFFF AND SUB PUSH2 0x882 JUMPI PUSH1 0x40 MLOAD PUSH32 0xC1AB6DC100000000000000000000000000000000000000000000000000000000 DUP2 MSTORE PUSH1 0x4 ADD PUSH1 0x40 MLOAD DUP1 SWAP2 SUB SWAP1 REVERT JUMPDEST DUP2 PUSH1 0x2 PUSH0 DUP6 PUSH20 0xFFFFFFFFFFFFFFFFFFFFFFFFFFFFFFFFFFFFFFFF AND PUSH20 0xFFFFFFFFFFFFFFFFFFFFFFFFFFFFFFFFFFFFFFFF AND DUP2 MSTORE PUSH1 0x20 ADD SWAP1 DUP2 MSTORE PUSH1 0x20 ADD PUSH0 KECCAK256 PUSH0 PUSH2 0x100 EXP DUP2 SLOAD DUP2 PUSH1 0xFF MUL NOT AND SWAP1 DUP4 PUSH1 0x1 DUP2 GT ISZERO PUSH2 0x8E1 JUMPI PUSH2 0x8E0 PUSH2 0x11D6 JUMP JUMPDEST JUMPDEST MUL OR SWAP1 SSTORE POP DUP3 PUSH20 0xFFFFFFFFFFFFFFFFFFFFFFFFFFFFFFFFFFFFFFFF AND PUSH32 0xAE3E4D0A9B0F0735E05E45097694B381450F1B79257610DEEC59282D49D539DB DUP4 TIMESTAMP PUSH1 0x40 MLOAD PUSH2 0x92E SWAP3 SWAP2 SWAP1 PUSH2 0x1500 JUMP JUMPDEST PUSH1 0x40 MLOAD DUP1 SWAP2 SUB SWAP1 LOG2 POP POP POP JUMP JUMPDEST PUSH1 0x2 PUSH1 0x20 MSTORE DUP1 PUSH0 MSTORE PUSH1 0x40 PUSH0 KECCAK256 PUSH0 SWAP2 POP SLOAD SWAP1 PUSH2 0x100 EXP SWAP1 DIV PUSH1 0xFF AND DUP2 JUMP JUMPDEST PUSH1 0x1 PUSH0 SWAP1 SLOAD SWAP1 PUSH2 0x100 EXP SWAP1 DIV PUSH20 0xFFFFFFFFFFFFFFFFFFFFFFFFFFFFFFFFFFFFFFFF AND DUP2 JUMP JUMPDEST PUSH2 0x985 PUSH2 0xEF3 JUMP JUMPDEST PUSH2 0x98E PUSH0 PUSH2 0xF7A JUMP JUMPDEST JUMP JUMPDEST PUSH2 0x998 PUSH2 0xEF3 JUMP JUMPDEST DUP3 PUSH0 PUSH20 0xFFFFFFFFFFFFFFFFFFFFFFFFFFFFFFFFFFFFFFFF AND DUP2 PUSH20 0xFFFFFFFFFFFFFFFFFFFFFFFFFFFFFFFFFFFFFFFF AND SUB PUSH2 0x9FE JUMPI PUSH1 0x40 MLOAD PUSH32 0xC1AB6DC100000000000000000000000000000000000000000000000000000000 DUP2 MSTORE PUSH1 0x4 ADD PUSH1 0x40 MLOAD DUP1 SWAP2 SUB SWAP1 REVERT JUMPDEST DUP4 PUSH0 PUSH1 0x1 DUP2 GT ISZERO PUSH2 0xA12 JUMPI PUSH2 0xA11 PUSH2 0x11D6 JUMP JUMPDEST JUMPDEST PUSH1 0x2 PUSH0 DUP4 PUSH20 0xFFFFFFFFFFFFFFFFFFFFFFFFFFFFFFFFFFFFFFFF AND PUSH20 0xFFFFFFFFFFFFFFFFFFFFFFFFFFFFFFFFFFFFFFFF AND DUP2 MSTORE PUSH1 0x20 ADD SWAP1 DUP2 MSTORE PUSH1 0x20 ADD PUSH0 KECCAK256 PUSH0 SWAP1 SLOAD SWAP1 PUSH2 0x100 EXP SWAP1 DIV PUSH1 0xFF AND PUSH1 0x1 DUP2 GT ISZERO PUSH2 0xA6E JUMPI PUSH2 0xA6D PUSH2 0x11D6 JUMP JUMPDEST JUMPDEST SUB PUSH2 0xAA5 JUMPI PUSH1 0x40 MLOAD PUSH32 0xDD7B61200000000000000000000000000000000000000000000000000000000 DUP2 MSTORE PUSH1 0x4 ADD PUSH1 0x40 MLOAD DUP1 SWAP2 SUB SWAP1 REVERT JUMPDEST DUP5 PUSH20 0xFFFFFFFFFFFFFFFFFFFFFFFFFFFFFFFFFFFFFFFF AND PUSH4 0xA9059CBB DUP6 DUP6 PUSH1 0x40 MLOAD DUP4 PUSH4 0xFFFFFFFF AND PUSH1 0xE0 SHL DUP2 MSTORE PUSH1 0x4 ADD PUSH2 0xAE0 SWAP3 SWAP2 SWAP1 PUSH2 0x139B JUMP JUMPDEST PUSH1 0x20 PUSH1 0x40 MLOAD DUP1 DUP4 SUB DUP2 PUSH0 DUP8 GAS CALL ISZERO DUP1 ISZERO PUSH2 0xAFC JUMPI RETURNDATASIZE PUSH0 PUSH0 RETURNDATACOPY RETURNDATASIZE PUSH0 REVERT JUMPDEST POP POP POP POP PUSH1 0x40 MLOAD RETURNDATASIZE PUSH1 0x1F NOT PUSH1 0x1F DUP3 ADD AND DUP3 ADD DUP1 PUSH1 0x40 MSTORE POP DUP2 ADD SWAP1 PUSH2 0xB20 SWAP2 SWAP1 PUSH2 0x1484 JUMP JUMPDEST POP DUP4 PUSH20 0xFFFFFFFFFFFFFFFFFFFFFFFFFFFFFFFFFFFFFFFF AND PUSH32 0x88808AFC48888C0E3EC9C545474E31CE16F177BE8D0C8BA3922274893615750E DUP7 DUP6 TIMESTAMP PUSH1 0x40 MLOAD PUSH2 0xB6B SWAP4 SWAP3 SWAP2 SWAP1 PUSH2 0x1527 JUMP JUMPDEST PUSH1 0x40 MLOAD DUP1 SWAP2 SUB SWAP1 LOG2 POP POP POP POP POP JUMP JUMPDEST PUSH0 PUSH0 PUSH0 SWAP1 SLOAD SWAP1 PUSH2 0x100 EXP SWAP1 DIV PUSH20 0xFFFFFFFFFFFFFFFFFFFFFFFFFFFFFFFFFFFFFFFF AND SWAP1 POP SWAP1 JUMP JUMPDEST PUSH2 0xBA9 PUSH2 0xEF3 JUMP JUMPDEST PUSH1 0x1 PUSH0 SWAP1 SLOAD SWAP1 PUSH2 0x100 EXP SWAP1 DIV PUSH20 0xFFFFFFFFFFFFFFFFFFFFFFFFFFFFFFFFFFFFFFFF AND PUSH20 0xFFFFFFFFFFFFFFFFFFFFFFFFFFFFFFFFFFFFFFFF AND PUSH4 0x40C10F19 DUP4 DUP4 PUSH1 0x40 MLOAD DUP4 PUSH4 0xFFFFFFFF AND PUSH1 0xE0 SHL DUP2 MSTORE PUSH1 0x4 ADD PUSH2 0xC05 SWAP3 SWAP2 SWAP1 PUSH2 0x139B JUMP JUMPDEST PUSH0 PUSH1 0x40 MLOAD DUP1 DUP4 SUB DUP2 PUSH0 DUP8 DUP1 EXTCODESIZE ISZERO DUP1 ISZERO PUSH2 0xC1C JUMPI PUSH0 PUSH0 REVERT JUMPDEST POP GAS CALL ISZERO DUP1 ISZERO PUSH2 0xC2E JUMPI RETURNDATASIZE PUSH0 PUSH0 RETURNDATACOPY RETURNDATASIZE PUSH0 REVERT JUMPDEST POP POP POP POP DUP2 PUSH20 0xFFFFFFFFFFFFFFFFFFFFFFFFFFFFFFFFFFFFFFFF AND PUSH32 0x2379B5431252245BAA89E228E37DF9A699AC9C85DF8F34F82AB2ED64E44B64CF DUP3 TIMESTAMP PUSH1 0x40 MLOAD PUSH2 0xC7A SWAP3 SWAP2 SWAP1 PUSH2 0x155C JUMP JUMPDEST PUSH1 0x40 MLOAD DUP1 SWAP2 SUB SWAP1 LOG2 POP POP JUMP JUMPDEST PUSH2 0xC8E PUSH2 0xEF3 JUMP JUMPDEST PUSH0 PUSH20 0xFFFFFFFFFFFFFFFFFFFFFFFFFFFFFFFFFFFFFFFF AND DUP2 PUSH20 0xFFFFFFFFFFFFFFFFFFFFFFFFFFFFFFFFFFFFFFFF AND SUB PUSH2 0xCFE JUMPI PUSH0 PUSH1 0x40 MLOAD PUSH32 0x1E4FBDF700000000000000000000000000000000000000000000000000000000 DUP2 MSTORE PUSH1 0x4 ADD PUSH2 0xCF5 SWAP2 SWAP1 PUSH2 0x1335 JUMP JUMPDEST PUSH1 0x40 MLOAD DUP1 SWAP2 SUB SWAP1 REVERT JUMPDEST PUSH2 0xD07 DUP2 PUSH2 0xF7A JUMP JUMPDEST POP JUMP JUMPDEST PUSH2 0xD12 PUSH2 0xEF3 JUMP JUMPDEST DUP2 PUSH0 PUSH20 0xFFFFFFFFFFFFFFFFFFFFFFFFFFFFFFFFFFFFFFFF AND DUP2 PUSH20 0xFFFFFFFFFFFFFFFFFFFFFFFFFFFFFFFFFFFFFFFF AND SUB PUSH2 0xD78 JUMPI PUSH1 0x40 MLOAD PUSH32 0xC1AB6DC100000000000000000000000000000000000000000000000000000000 DUP2 MSTORE PUSH1 0x4 ADD PUSH1 0x40 MLOAD DUP1 SWAP2 SUB SWAP1 REVERT JUMPDEST DUP3 PUSH0 PUSH1 0x1 DUP2 GT ISZERO PUSH2 0xD8C JUMPI PUSH2 0xD8B PUSH2 0x11D6 JUMP JUMPDEST JUMPDEST PUSH1 0x2 PUSH0 DUP4 PUSH20 0xFFFFFFFFFFFFFFFFFFFFFFFFFFFFFFFFFFFFFFFF AND PUSH20 0xFFFFFFFFFFFFFFFFFFFFFFFFFFFFFFFFFFFFFFFF AND DUP2 MSTORE PUSH1 0x20 ADD SWAP1 DUP2 MSTORE PUSH1 0x20 ADD PUSH0 KECCAK256 PUSH0 SWAP1 SLOAD SWAP1 PUSH2 0x100 EXP SWAP1 DIV PUSH1 0xFF AND PUSH1 0x1 DUP2 GT ISZERO PUSH2 0xDE8 JUMPI PUSH2 0xDE7 PUSH2 0x11D6 JUMP JUMPDEST JUMPDEST SUB PUSH2 0xE1F JUMPI PUSH1 0x40 MLOAD PUSH32 0xDD7B61200000000000000000000000000000000000000000000000000000000 DUP2 MSTORE PUSH1 0x4 ADD PUSH1 0x40 MLOAD DUP1 SWAP2 SUB SWAP1 REVERT JUMPDEST DUP4 PUSH20 0xFFFFFFFFFFFFFFFFFFFFFFFFFFFFFFFFFFFFFFFF AND PUSH4 0xA9059CBB CALLER DUP6 PUSH1 0x40 MLOAD DUP4 PUSH4 0xFFFFFFFF AND PUSH1 0xE0 SHL DUP2 MSTORE PUSH1 0x4 ADD PUSH2 0xE5A SWAP3 SWAP2 SWAP1 PUSH2 0x139B JUMP JUMPDEST PUSH1 0x20 PUSH1 0x40 MLOAD DUP1 DUP4 SUB DUP2 PUSH0 DUP8 GAS CALL ISZERO DUP1 ISZERO PUSH2 0xE76 JUMPI RETURNDATASIZE PUSH0 PUSH0 RETURNDATACOPY RETURNDATASIZE PUSH0 REVERT JUMPDEST POP POP POP POP PUSH1 0x40 MLOAD RETURNDATASIZE PUSH1 0x1F NOT PUSH1 0x1F DUP3 ADD AND DUP3 ADD DUP1 PUSH1 0x40 MSTORE POP DUP2 ADD SWAP1 PUSH2 0xE9A SWAP2 SWAP1 PUSH2 0x1484 JUMP JUMPDEST POP CALLER PUSH20 0xFFFFFFFFFFFFFFFFFFFFFFFFFFFFFFFFFFFFFFFF AND PUSH32 0x91FB9D98B786C57D74C099CCD2BECA1739E9F6A81FB49001CA465C4B7591BBE2 DUP6 DUP6 TIMESTAMP PUSH1 0x40 MLOAD PUSH2 0xEE5 SWAP4 SWAP3 SWAP2 SWAP1 PUSH2 0x1527 JUMP JUMPDEST PUSH1 0x40 MLOAD DUP1 SWAP2 SUB SWAP1 LOG2 POP POP POP POP JUMP JUMPDEST PUSH2 0xEFB PUSH2 0x103B JUMP JUMPDEST PUSH20 0xFFFFFFFFFFFFFFFFFFFFFFFFFFFFFFFFFFFFFFFF AND PUSH2 0xF19 PUSH2 0xB7A JUMP JUMPDEST PUSH20 0xFFFFFFFFFFFFFFFFFFFFFFFFFFFFFFFFFFFFFFFF AND EQ PUSH2 0xF78 JUMPI PUSH2 0xF3C PUSH2 0x103B JUMP JUMPDEST PUSH1 0x40 MLOAD PUSH32 0x118CDAA700000000000000000000000000000000000000000000000000000000 DUP2 MSTORE PUSH1 0x4 ADD PUSH2 0xF6F SWAP2 SWAP1 PUSH2 0x1335 JUMP JUMPDEST PUSH1 0x40 MLOAD DUP1 SWAP2 SUB SWAP1 REVERT JUMPDEST JUMP JUMPDEST PUSH0 PUSH0 PUSH0 SWAP1 SLOAD SWAP1 PUSH2 0x100 EXP SWAP1 DIV PUSH20 0xFFFFFFFFFFFFFFFFFFFFFFFFFFFFFFFFFFFFFFFF AND SWAP1 POP DUP2 PUSH0 PUSH0 PUSH2 0x100 EXP DUP2 SLOAD DUP2 PUSH20 0xFFFFFFFFFFFFFFFFFFFFFFFFFFFFFFFFFFFFFFFF MUL NOT AND SWAP1 DUP4 PUSH20 0xFFFFFFFFFFFFFFFFFFFFFFFFFFFFFFFFFFFFFFFF AND MUL OR SWAP1 SSTORE POP DUP2 PUSH20 0xFFFFFFFFFFFFFFFFFFFFFFFFFFFFFFFFFFFFFFFF AND DUP2 PUSH20 0xFFFFFFFFFFFFFFFFFFFFFFFFFFFFFFFFFFFFFFFF AND PUSH32 0x8BE0079C531659141344CD1FD0A4F28419497F9722A3DAAFE3B4186F6B6457E0 PUSH1 0x40 MLOAD PUSH1 0x40 MLOAD DUP1 SWAP2 SUB SWAP1 LOG3 POP POP JUMP JUMPDEST PUSH0 CALLER SWAP1 POP SWAP1 JUMP JUMPDEST PUSH0 PUSH0 REVERT JUMPDEST PUSH0 PUSH20 0xFFFFFFFFFFFFFFFFFFFFFFFFFFFFFFFFFFFFFFFF DUP3 AND SWAP1 POP SWAP2 SWAP1 POP JUMP JUMPDEST PUSH0 PUSH2 0x106F DUP3 PUSH2 0x1046 JUMP JUMPDEST SWAP1 POP SWAP2 SWAP1 POP JUMP JUMPDEST PUSH2 0x107F DUP2 PUSH2 0x1065 JUMP JUMPDEST DUP2 EQ PUSH2 0x1089 JUMPI PUSH0 PUSH0 REVERT JUMPDEST POP JUMP JUMPDEST PUSH0 DUP2 CALLDATALOAD SWAP1 POP PUSH2 0x109A DUP2 PUSH2 0x1076 JUMP JUMPDEST SWAP3 SWAP2 POP POP JUMP JUMPDEST PUSH0 PUSH1 0x20 DUP3 DUP5 SUB SLT ISZERO PUSH2 0x10B5 JUMPI PUSH2 0x10B4 PUSH2 0x1042 JUMP JUMPDEST JUMPDEST PUSH0 PUSH2 0x10C2 DUP5 DUP3 DUP6 ADD PUSH2 0x108C JUMP JUMPDEST SWAP2 POP POP SWAP3 SWAP2 POP POP JUMP JUMPDEST PUSH0 DUP2 SWAP1 POP SWAP2 SWAP1 POP JUMP JUMPDEST PUSH2 0x10DD DUP2 PUSH2 0x10CB JUMP JUMPDEST DUP2 EQ PUSH2 0x10E7 JUMPI PUSH0 PUSH0 REVERT JUMPDEST POP JUMP JUMPDEST PUSH0 DUP2 CALLDATALOAD SWAP1 POP PUSH2 0x10F8 DUP2 PUSH2 0x10D4 JUMP JUMPDEST SWAP3 SWAP2 POP POP JUMP JUMPDEST PUSH0 PUSH0 PUSH0 PUSH0 PUSH0 PUSH1 0xA0 DUP7 DUP9 SUB SLT ISZERO PUSH2 0x1117 JUMPI PUSH2 0x1116 PUSH2 0x1042 JUMP JUMPDEST JUMPDEST PUSH0 PUSH2 0x1124 DUP9 DUP3 DUP10 ADD PUSH2 0x10EA JUMP JUMPDEST SWAP6 POP POP PUSH1 0x20 PUSH2 0x1135 DUP9 DUP3 DUP10 ADD PUSH2 0x108C JUMP JUMPDEST SWAP5 POP POP PUSH1 0x40 PUSH2 0x1146 DUP9 DUP3 DUP10 ADD PUSH2 0x10EA JUMP JUMPDEST SWAP4 POP POP PUSH1 0x60 PUSH2 0x1157 DUP9 DUP3 DUP10 ADD PUSH2 0x10EA JUMP JUMPDEST SWAP3 POP POP PUSH1 0x80 PUSH2 0x1168 DUP9 DUP3 DUP10 ADD PUSH2 0x10EA JUMP JUMPDEST SWAP2 POP POP SWAP3 SWAP6 POP SWAP3 SWAP6 SWAP1 SWAP4 POP JUMP JUMPDEST PUSH1 0x2 DUP2 LT PUSH2 0x1181 JUMPI PUSH0 PUSH0 REVERT JUMPDEST POP JUMP JUMPDEST PUSH0 DUP2 CALLDATALOAD SWAP1 POP PUSH2 0x1192 DUP2 PUSH2 0x1175 JUMP JUMPDEST SWAP3 SWAP2 POP POP JUMP JUMPDEST PUSH0 PUSH0 PUSH1 0x40 DUP4 DUP6 SUB SLT ISZERO PUSH2 0x11AE JUMPI PUSH2 0x11AD PUSH2 0x1042 JUMP JUMPDEST JUMPDEST PUSH0 PUSH2 0x11BB DUP6 DUP3 DUP7 ADD PUSH2 0x108C JUMP JUMPDEST SWAP3 POP POP PUSH1 0x20 PUSH2 0x11CC DUP6 DUP3 DUP7 ADD PUSH2 0x1184 JUMP JUMPDEST SWAP2 POP POP SWAP3 POP SWAP3 SWAP1 POP JUMP JUMPDEST PUSH32 0x4E487B7100000000000000000000000000000000000000000000000000000000 PUSH0 MSTORE PUSH1 0x21 PUSH1 0x4 MSTORE PUSH1 0x24 PUSH0 REVERT JUMPDEST PUSH1 0x2 DUP2 LT PUSH2 0x1214 JUMPI PUSH2 0x1213 PUSH2 0x11D6 JUMP JUMPDEST JUMPDEST POP JUMP JUMPDEST PUSH0 DUP2 SWAP1 POP PUSH2 0x1224 DUP3 PUSH2 0x1203 JUMP JUMPDEST SWAP2 SWAP1 POP JUMP JUMPDEST PUSH0 PUSH2 0x1233 DUP3 PUSH2 0x1217 JUMP JUMPDEST SWAP1 POP SWAP2 SWAP1 POP JUMP JUMPDEST PUSH2 0x1243 DUP2 PUSH2 0x1229 JUMP JUMPDEST DUP3 MSTORE POP POP JUMP JUMPDEST PUSH0 PUSH1 0x20 DUP3 ADD SWAP1 POP PUSH2 0x125C PUSH0 DUP4 ADD DUP5 PUSH2 0x123A JUMP JUMPDEST SWAP3 SWAP2 POP POP JUMP JUMPDEST PUSH0 DUP2 SWAP1 POP SWAP2 SWAP1 POP JUMP JUMPDEST PUSH0 PUSH2 0x1285 PUSH2 0x1280 PUSH2 0x127B DUP5 PUSH2 0x1046 JUMP JUMPDEST PUSH2 0x1262 JUMP JUMPDEST PUSH2 0x1046 JUMP JUMPDEST SWAP1 POP SWAP2 SWAP1 POP JUMP JUMPDEST PUSH0 PUSH2 0x1296 DUP3 PUSH2 0x126B JUMP JUMPDEST SWAP1 POP SWAP2 SWAP1 POP JUMP JUMPDEST PUSH0 PUSH2 0x12A7 DUP3 PUSH2 0x128C JUMP JUMPDEST SWAP1 POP SWAP2 SWAP1 POP JUMP JUMPDEST PUSH2 0x12B7 DUP2 PUSH2 0x129D JUMP JUMPDEST DUP3 MSTORE POP POP JUMP JUMPDEST PUSH0 PUSH1 0x20 DUP3 ADD SWAP1 POP PUSH2 0x12D0 PUSH0 DUP4 ADD DUP5 PUSH2 0x12AE JUMP JUMPDEST SWAP3 SWAP2 POP POP JUMP JUMPDEST PUSH0 PUSH0 PUSH0 PUSH1 0x60 DUP5 DUP7 SUB SLT ISZERO PUSH2 0x12ED JUMPI PUSH2 0x12EC PUSH2 0x1042 JUMP JUMPDEST JUMPDEST PUSH0 PUSH2 0x12FA DUP7 DUP3 DUP8 ADD PUSH2 0x108C JUMP JUMPDEST SWAP4 POP POP PUSH1 0x20 PUSH2 0x130B DUP7 DUP3 DUP8 ADD PUSH2 0x108C JUMP JUMPDEST SWAP3 POP POP PUSH1 0x40 PUSH2 0x131C DUP7 DUP3 DUP8 ADD PUSH2 0x10EA JUMP JUMPDEST SWAP2 POP POP SWAP3 POP SWAP3 POP SWAP3 JUMP JUMPDEST PUSH2 0x132F DUP2 PUSH2 0x1065 JUMP JUMPDEST DUP3 MSTORE POP POP JUMP JUMPDEST PUSH0 PUSH1 0x20 DUP3 ADD SWAP1 POP PUSH2 0x1348 PUSH0 DUP4 ADD DUP5 PUSH2 0x1326 JUMP JUMPDEST SWAP3 SWAP2 POP POP JUMP JUMPDEST PUSH0 PUSH0 PUSH1 0x40 DUP4 DUP6 SUB SLT ISZERO PUSH2 0x1364 JUMPI PUSH2 0x1363 PUSH2 0x1042 JUMP JUMPDEST JUMPDEST PUSH0 PUSH2 0x1371 DUP6 DUP3 DUP7 ADD PUSH2 0x108C JUMP JUMPDEST SWAP3 POP POP PUSH1 0x20 PUSH2 0x1382 DUP6 DUP3 DUP7 ADD PUSH2 0x10EA JUMP JUMPDEST SWAP2 POP POP SWAP3 POP SWAP3 SWAP1 POP JUMP JUMPDEST PUSH2 0x1395 DUP2 PUSH2 0x10CB JUMP JUMPDEST DUP3 MSTORE POP POP JUMP JUMPDEST PUSH0 PUSH1 0x40 DUP3 ADD SWAP1 POP PUSH2 0x13AE PUSH0 DUP4 ADD DUP6 PUSH2 0x1326 JUMP JUMPDEST PUSH2 0x13BB PUSH1 0x20 DUP4 ADD DUP5 PUSH2 0x138C JUMP JUMPDEST SWAP4 SWAP3 POP POP POP JUMP JUMPDEST PUSH0 PUSH1 0x20 DUP3 ADD SWAP1 POP PUSH2 0x13D5 PUSH0 DUP4 ADD DUP5 PUSH2 0x138C JUMP JUMPDEST SWAP3 SWAP2 POP POP JUMP JUMPDEST PUSH0 DUP2 MLOAD SWAP1 POP PUSH2 0x13E9 DUP2 PUSH2 0x10D4 JUMP JUMPDEST SWAP3 SWAP2 POP POP JUMP JUMPDEST PUSH0 PUSH1 0x20 DUP3 DUP5 SUB SLT ISZERO PUSH2 0x1404 JUMPI PUSH2 0x1403 PUSH2 0x1042 JUMP JUMPDEST JUMPDEST PUSH0 PUSH2 0x1411 DUP5 DUP3 DUP6 ADD PUSH2 0x13DB JUMP JUMPDEST SWAP2 POP POP SWAP3 SWAP2 POP POP JUMP JUMPDEST PUSH0 PUSH1 0x60 DUP3 ADD SWAP1 POP PUSH2 0x142D PUSH0 DUP4 ADD DUP7 PUSH2 0x1326 JUMP JUMPDEST PUSH2 0x143A PUSH1 0x20 DUP4 ADD DUP6 PUSH2 0x1326 JUMP JUMPDEST PUSH2 0x1447 PUSH1 0x40 DUP4 ADD DUP5 PUSH2 0x138C JUMP JUMPDEST SWAP5 SWAP4 POP POP POP POP JUMP JUMPDEST PUSH0 DUP2 ISZERO ISZERO SWAP1 POP SWAP2 SWAP1 POP JUMP JUMPDEST PUSH2 0x1463 DUP2 PUSH2 0x144F JUMP JUMPDEST DUP2 EQ PUSH2 0x146D JUMPI PUSH0 PUSH0 REVERT JUMPDEST POP JUMP JUMPDEST PUSH0 DUP2 MLOAD SWAP1 POP PUSH2 0x147E DUP2 PUSH2 0x145A JUMP JUMPDEST SWAP3 SWAP2 POP POP JUMP JUMPDEST PUSH0 PUSH1 0x20 DUP3 DUP5 SUB SLT ISZERO PUSH2 0x1499 JUMPI PUSH2 0x1498 PUSH2 0x1042 JUMP JUMPDEST JUMPDEST PUSH0 PUSH2 0x14A6 DUP5 DUP3 DUP6 ADD PUSH2 0x1470 JUMP JUMPDEST SWAP2 POP POP SWAP3 SWAP2 POP POP JUMP JUMPDEST PUSH0 PUSH1 0xA0 DUP3 ADD SWAP1 POP PUSH2 0x14C2 PUSH0 DUP4 ADD DUP9 PUSH2 0x1326 JUMP JUMPDEST PUSH2 0x14CF PUSH1 0x20 DUP4 ADD DUP8 PUSH2 0x138C JUMP JUMPDEST PUSH2 0x14DC PUSH1 0x40 DUP4 ADD DUP7 PUSH2 0x138C JUMP JUMPDEST PUSH2 0x14E9 PUSH1 0x60 DUP4 ADD DUP6 PUSH2 0x138C JUMP JUMPDEST PUSH2 0x14F6 PUSH1 0x80 DUP4 ADD DUP5 PUSH2 0x138C JUMP JUMPDEST SWAP7 SWAP6 POP POP POP POP POP POP JUMP JUMPDEST PUSH0 PUSH1 0x40 DUP3 ADD SWAP1 POP PUSH2 0x1513 PUSH0 DUP4 ADD DUP6 PUSH2 0x123A JUMP JUMPDEST PUSH2 0x1520 PUSH1 0x20 DUP4 ADD DUP5 PUSH2 0x138C JUMP JUMPDEST SWAP4 SWAP3 POP POP POP JUMP JUMPDEST PUSH0 PUSH1 0x60 DUP3 ADD SWAP1 POP PUSH2 0x153A PUSH0 DUP4 ADD DUP7 PUSH2 0x1326 JUMP JUMPDEST PUSH2 0x1547 PUSH1 0x20 DUP4 ADD DUP6 PUSH2 0x138C JUMP JUMPDEST PUSH2 0x1554 PUSH1 0x40 DUP4 ADD DUP5 PUSH2 0x138C JUMP JUMPDEST SWAP5 SWAP4 POP POP POP POP JUMP JUMPDEST PUSH0 PUSH1 0x40 DUP3 ADD SWAP1 POP PUSH2 0x156F PUSH0 DUP4 ADD DUP6 PUSH2 0x138C JUMP JUMPDEST PUSH2 0x157C PUSH1 0x20 DUP4 ADD DUP5 PUSH2 0x138C JUMP JUMPDEST SWAP4 SWAP3 POP POP POP JUMP INVALID LOG2 PUSH5 0x6970667358 0x22 SLT KECCAK256 0xD0 DATALOADN 0xBDB1 0xB4 PUSH29 0x431A080B6A1311D5E666E22E8F5F4B0E74ABBD1A71F8BDDFCD9C64736F PUSH13 0x634300081E0033000000000000 "
		},
		"gasEstimates": {
			"creation": {
				"codeDepositCost": "1112200",
				"executionCost": "infinite",
				"totalCost": "infinite"
			},
			"external": {
				"": "195",
				"mintPoCTokens(address,uint256)": "infinite",
				"orderWithToken(uint256,address,uint256,uint256,uint256)": "infinite",
				"owner()": "2558",
				"paymentToken(address)": "2988",
				"pocToken()": "infinite",
				"refund(address,address,uint256)": "infinite",
				"renounceOwnership()": "infinite",
				"setPaymentToken(address,uint8)": "infinite",
				"setPoCToken(address)": "infinite",
				"transferOwnership(address)": "infinite",
				"withdraw(address,uint256)": "infinite"
			}
		},
		"methodIdentifiers": {
			"mintPoCTokens(address,uint256)": "d9f524af",
			"orderWithToken(uint256,address,uint256,uint256,uint256)": "2d28936b",
			"owner()": "8da5cb5b",
			"paymentToken(address)": "352cad4c",
			"pocToken()": "6c0bd96c",
			"refund(address,address,uint256)": "82ad6f35",
			"renounceOwnership()": "715018a6",
			"setPaymentToken(address,uint8)": "2e1aaf5a",
			"setPoCToken(address)": "2a37e054",
			"transferOwnership(address)": "f2fde38b",
			"withdraw(address,uint256)": "f3fef3a3"
		}
	},
	"abi": [
		{
			"inputs": [
				{
					"internalType": "address",
					"name": "initialOwner",
					"type": "address"
				},
				{
					"internalType": "address[]",
					"name": "initialPaymentTokens",
					"type": "address[]"
				}
			],
			"stateMutability": "nonpayable",
			"type": "constructor"
		},
		{
			"inputs": [],
			"name": "DisabledToken",
			"type": "error"
		},
		{
			"inputs": [],
			"name": "InsufficientBalance",
			"type": "error"
		},
		{
			"inputs": [
				{
					"internalType": "uint256",
					"name": "amount",
					"type": "uint256"
				}
			],
			"name": "InvalidAmount",
			"type": "error"
		},
		{
			"inputs": [],
			"name": "InvalidToken",
			"type": "error"
		},
		{
			"inputs": [
				{
					"internalType": "address",
					"name": "owner",
					"type": "address"
				}
			],
			"name": "OwnableInvalidOwner",
			"type": "error"
		},
		{
			"inputs": [
				{
					"internalType": "address",
					"name": "account",
					"type": "address"
				}
			],
			"name": "OwnableUnauthorizedAccount",
			"type": "error"
		},
		{
			"inputs": [],
			"name": "PoCTokenAlreadySet",
			"type": "error"
		},
		{
			"anonymous": false,
			"inputs": [
				{
					"indexed": true,
					"internalType": "address",
					"name": "user",
					"type": "address"
				},
				{
					"indexed": true,
					"internalType": "uint256",
					"name": "orderId",
					"type": "uint256"
				},
				{
					"indexed": false,
					"internalType": "address",
					"name": "token",
					"type": "address"
				},
				{
					"indexed": false,
					"internalType": "uint256",
					"name": "total",
					"type": "uint256"
				},
				{
					"indexed": false,
					"internalType": "uint256",
					"name": "totalIdr",
					"type": "uint256"
				},
				{
					"indexed": false,
					"internalType": "uint256",
					"name": "points",
					"type": "uint256"
				},
				{
					"indexed": false,
					"internalType": "uint256",
					"name": "timestamp",
					"type": "uint256"
				}
			],
			"name": "OrderedWithToken",
			"type": "event"
		},
		{
			"anonymous": false,
			"inputs": [
				{
					"indexed": true,
					"internalType": "address",
					"name": "previousOwner",
					"type": "address"
				},
				{
					"indexed": true,
					"internalType": "address",
					"name": "newOwner",
					"type": "address"
				}
			],
			"name": "OwnershipTransferred",
			"type": "event"
		},
		{
			"anonymous": false,
			"inputs": [
				{
					"indexed": true,
					"internalType": "address",
					"name": "token",
					"type": "address"
				},
				{
					"indexed": false,
					"internalType": "enum PoC.TOKEN_STATUS",
					"name": "status",
					"type": "uint8"
				},
				{
					"indexed": false,
					"internalType": "uint256",
					"name": "timestamp",
					"type": "uint256"
				}
			],
			"name": "PaymentTokenSet",
			"type": "event"
		},
		{
			"anonymous": false,
			"inputs": [
				{
					"indexed": false,
					"internalType": "address",
					"name": "token",
					"type": "address"
				},
				{
					"indexed": false,
					"internalType": "uint256",
					"name": "timestamp",
					"type": "uint256"
				}
			],
			"name": "PoCTokenSet",
			"type": "event"
		},
		{
			"anonymous": false,
			"inputs": [
				{
					"indexed": true,
					"internalType": "address",
					"name": "to",
					"type": "address"
				},
				{
					"indexed": false,
					"internalType": "uint256",
					"name": "amount",
					"type": "uint256"
				},
				{
					"indexed": false,
					"internalType": "uint256",
					"name": "timestamp",
					"type": "uint256"
				}
			],
			"name": "PocTokensMinted",
			"type": "event"
		},
		{
			"anonymous": false,
			"inputs": [
				{
					"indexed": true,
					"internalType": "address",
					"name": "to",
					"type": "address"
				},
				{
					"indexed": false,
					"internalType": "address",
					"name": "token",
					"type": "address"
				},
				{
					"indexed": false,
					"internalType": "uint256",
					"name": "amount",
					"type": "uint256"
				},
				{
					"indexed": false,
					"internalType": "uint256",
					"name": "timestamp",
					"type": "uint256"
				}
			],
			"name": "Refunded",
			"type": "event"
		},
		{
			"anonymous": false,
			"inputs": [
				{
					"indexed": true,
					"internalType": "address",
					"name": "owner",
					"type": "address"
				},
				{
					"indexed": false,
					"internalType": "address",
					"name": "token",
					"type": "address"
				},
				{
					"indexed": false,
					"internalType": "uint256",
					"name": "amount",
					"type": "uint256"
				},
				{
					"indexed": false,
					"internalType": "uint256",
					"name": "timestamp",
					"type": "uint256"
				}
			],
			"name": "Withdrawn",
			"type": "event"
		},
		{
			"stateMutability": "payable",
			"type": "fallback"
		},
		{
			"inputs": [
				{
					"internalType": "address",
					"name": "to",
					"type": "address"
				},
				{
					"internalType": "uint256",
					"name": "amount",
					"type": "uint256"
				}
			],
			"name": "mintPoCTokens",
			"outputs": [],
			"stateMutability": "nonpayable",
			"type": "function"
		},
		{
			"inputs": [
				{
					"internalType": "uint256",
					"name": "orderId",
					"type": "uint256"
				},
				{
					"internalType": "address",
					"name": "token",
					"type": "address"
				},
				{
					"internalType": "uint256",
					"name": "total",
					"type": "uint256"
				},
				{
					"internalType": "uint256",
					"name": "totalIdr",
					"type": "uint256"
				},
				{
					"internalType": "uint256",
					"name": "points",
					"type": "uint256"
				}
			],
			"name": "orderWithToken",
			"outputs": [],
			"stateMutability": "nonpayable",
			"type": "function"
		},
		{
			"inputs": [],
			"name": "owner",
			"outputs": [
				{
					"internalType": "address",
					"name": "",
					"type": "address"
				}
			],
			"stateMutability": "view",
			"type": "function"
		},
		{
			"inputs": [
				{
					"internalType": "address",
					"name": "",
					"type": "address"
				}
			],
			"name": "paymentToken",
			"outputs": [
				{
					"internalType": "enum PoC.TOKEN_STATUS",
					"name": "",
					"type": "uint8"
				}
			],
			"stateMutability": "view",
			"type": "function"
		},
		{
			"inputs": [],
			"name": "pocToken",
			"outputs": [
				{
					"internalType": "contract PoCToken",
					"name": "",
					"type": "address"
				}
			],
			"stateMutability": "view",
			"type": "function"
		},
		{
			"inputs": [
				{
					"internalType": "address",
					"name": "token",
					"type": "address"
				},
				{
					"internalType": "address",
					"name": "to",
					"type": "address"
				},
				{
					"internalType": "uint256",
					"name": "amount",
					"type": "uint256"
				}
			],
			"name": "refund",
			"outputs": [],
			"stateMutability": "nonpayable",
			"type": "function"
		},
		{
			"inputs": [],
			"name": "renounceOwnership",
			"outputs": [],
			"stateMutability": "nonpayable",
			"type": "function"
		},
		{
			"inputs": [
				{
					"internalType": "address",
					"name": "token",
					"type": "address"
				},
				{
					"internalType": "enum PoC.TOKEN_STATUS",
					"name": "status",
					"type": "uint8"
				}
			],
			"name": "setPaymentToken",
			"outputs": [],
			"stateMutability": "nonpayable",
			"type": "function"
		},
		{
			"inputs": [
				{
					"internalType": "address",
					"name": "token",
					"type": "address"
				}
			],
			"name": "setPoCToken",
			"outputs": [],
			"stateMutability": "nonpayable",
			"type": "function"
		},
		{
			"inputs": [
				{
					"internalType": "address",
					"name": "newOwner",
					"type": "address"
				}
			],
			"name": "transferOwnership",
			"outputs": [],
			"stateMutability": "nonpayable",
			"type": "function"
		},
		{
			"inputs": [
				{
					"internalType": "address",
					"name": "token",
					"type": "address"
				},
				{
					"internalType": "uint256",
					"name": "amount",
					"type": "uint256"
				}
			],
			"name": "withdraw",
			"outputs": [],
			"stateMutability": "nonpayable",
			"type": "function"
		},
		{
			"stateMutability": "payable",
			"type": "receive"
		}
	]
}